:020000040000fa
:080000000002040000000000f2
:020000040000fa
:10000800d2020000d2020000d2020000d202000098
:10001800d2020000d2020000d2020000d202000088
:10002800d2020000d2020000d2020000d202000078
:10003800d2020000d2020000d2020000d202000068
:020000040000fa
:100400002f3821000eff24000e018800000000009c
:10041000000020000000e000020032000001200087
:10042000200288000c000700a0d32100010020005a
:100430000f000700000020000000e0000200320072
:100440000000020000000000142002000000000074
:100450000040da000000fe00c00820000000e000bc
:1004600002003200002020009001880000000600f9
:10047000a1028800800078000000eb001a0037001d
:10048000e280400054a0b4009101ba00e280400034
:1004900054a0b4009102ba00e280400054a0b4001d
:1004a0000002eb00472bde00f507b200a601880032
:1004b000602ce10008003a000049eb000201e8006e
:1004c000020039003420ec0002f0a0008301e900b2
:1004d000f9ff3e00040037006128e100010032000e
:1004e0000082eb00040007001101ba000200e000e6
:1004f000e3ff3a000000060004d0a300e20f490029
:100500001c003900810278003549ba000201e80078
:10051000020039003420ec0002f0a0008301e90061
:100520000f0032002549ba000201e800020039003c
:100530003420ec0002f0a0008301e9000800320042
:100540000400e0000600320015c9ba000201e8000c
:10055000020039003420ec0002f0a0008301e90021
:100560008180e80054a0b4000300e000e2ff3a00fc
:10057000000006009102ba00055978008301e900e5
:10058000f7ff3200c82ade00055978008301e90030
:10059000f3ff32000400e000f1ff320011d9ba008d
:1005a000eeff37000040da000000fe000a00fa000b
:1005b000e20f500022003e00049c8000e10f520038
:1005c0000600320087232000462320002423200039
:1005d00005232000e08f530004003a00872220000a
:1005e00046222000242220000522200000002800ae
:1005f0001500600003003a00800b78000700280017
:10060000958a7300054020009482620001003a0040
:1006100014a0a0008202780006003700940378003e
:100620000710b200fdff3200b103fb00070b78009a
:100630008502e900e08f5200f8ff3a000800370019
:10064000340020001007980032079800040f78004b
:10065000210798000e0078000c0a07003e01900068
:10066000020078000080fa0000000600889fbe00ab
:100670008a9fbe008c1f7800660007006d00330063
:1006800003866c006450e1002e0032006420e1001b
:10069000330032006150e1002f0032006120e100a0
:1006a0003100320085855500eb07b00009002000bd
:1006b00008042000050037000804440089844c0029
:1006c0000a0031000603430087834b0000015300fa
:1006d00081815b00f8ff33000203be000800a00028
:1006e0000804440089844c00f6ff3900c639dd0057
:1006f0008301730001003200130020008904d1003f
:100700000884d3000998a300050032000800a70060
:100710000300a0008904d1000884d3008b05e80001
:100720008904d1000884d3000001eb000281d200cb
:100730001200070001f0a1000cf0a70001f0a000da
:10074000450037006420e100470032000801be0088
:100750000200be00f7ff37006120e10042003200d6
:100760006000b800f3ff37000000200001f8270008
:10077000f0ff37006011b8008901370081002000c8
:10078000618055000b003d000b00200061fe2f0032
:100790000100e1001d0034008281710061016400ec
:1007a0008904d1000884d3000000e800faff3a0071
:1007b000710020006100640003007000020060000e
:1007c0000900320061044400e0844c000988a5005f
:1007d000050032008b05e8006808e10002003a00dd
:1007e0008904d1000884d300f20f20000258e100f0
:1007f00005003d00c75ddd00f907b2008980750086
:1008000008007800000006000bf827008b00780035
:10081000000005000004be00900107000003be00b8
:100820000405be000200be008c010700844f750065
:10083000000006000200be006450e1000500360022
:100840006420e100020036000968a30001003a00bc
:100850000800be000160a0004f0678004f05be00f2
:100860004f04be0000000600f0ff2f00f1ff27003c
:10087000f9ff37006022b800060220000000d00017
:100880008180d2000482d2008582d2000000a000c4
:100890000202520083825a00030031000202420029
:1008a00083824a000000a1000603e900f3ff3a003a
:1008b000000006000000fa00889fbe008a9fbe006c
:1008c0003004be002005be000404440085844c00b2
:1008d00006054d0087854d000898be000a90be00b1
:1008e0000440e10005c8e10006d0e10007d8e100be
:1008f00002003100680040001008e8004f05be000b
:100900004f04be000080fa00000006001000fa004c
:10091000889fbe008a9fbe000605be000404be007c
:100920003002be002003be00049fbe000697be003a
:10093000110020000802520089825a000a035b005d
:100940008b835b0044079800550798006607980062
:10095000770798000498be000698be003e02be00cd
:100960002e03be000820e10009a8e1000ab0e10062
:100970000bb8e100010039008000eb004f05be001c
:10098000108810004f04be000080fa00000006002e
:100990001400fa00889fbe005b0007008a9fbe001b
:1009a0008c9fbe000006eb004c0798003c079800a7
:1009b0002c0798001c0798000c0f78000605be0055
:1009c0000404be000d0420004e039000be029000ff
:1009d000860343002e029000e00f530003003d0009
:1009e0002a000700b3ff07000200370027000700b6
:1009f000c6ff0700ce029000150f9800e08f52004e
:100a00000900350045000700140020000500200003
:100a10006033b80000007200818072000201730030
:100a200083817300380007000c06e8008d0f560024
:100a3000e5ff3a001e0a9000e00f520004003d005e
:100a40000802be000a03be000e00780099ff0700ee
:100a50004eba9700e00f520006003a003e04be0076
:100a60002e05be0058079800690798007a0798007d
:100a70000b0f98004f06be00280007004f05be0070
:100a80004f04be000080fa00000006004f2bde007d
:100a90002200070086837300858242004f23de0018
:100aa00047079800868272000402420035079800ca
:100ab0009e0290004f2bde008582420006027200eb
:100ac000240798001e0278004f23de000402420033
:100ad00086827200150798004f18de00000f720022
:100ae0000e0007000802be000a03be00000040001e
:100af000818048000201490083814900020007000b
:100b00000e0078000000060050079800610798006a
:100b100072079800030f9800000006005e00900026
:100b2000ee0090007e0190008e099000000006000b
:100b30000000fa00881f780018002000881f780045
:100b400093ff07008f87e9004f0478000080fa00c8
:100b5000000006000000fa00801feb008cff070079
:100b60008f87e9000080fa00000006000000fa000c
:100b7000889fbe008a9fbe00e00f5000e08f5800a3
:100b8000e00f5900e08f59000c003d006044b800b0
:100b90006055b8000000540081805c0002015d00d7
:100ba00083815d00180020001600070008003d004a
:100bb000190007000004eb00050037000004eb00fb
:100bc0001000070002003d0013000700180020007d
:100bd000d7ff0700e00f5400060032006022b80083
:100be0006033b8000000520081805a0002015b00af
:100bf00083815b004f05be004f04be000080fa00f9
:100c000000000600e00f5200e08f5a00e00f5b008a
:100c1000e08f5b00000006006044b8006055b8003b
:100c20000402540085825c0006035d0087835d003a
:100c3000000006000000fa00889fbe008a9fbe00e8
:100c40008c1f7800e00f5000e08f5800e00f590033
:100c5000e08f59000d003d006044b8006055b800b9
:100c60001c0020000000540081805c0002015d0037
:100c700083815d000820e10009a8e1000ab0e100dd
:100c80000bb8e1000d003d00080037000006eb0046
:100c9000e00f5200e08f5a00e00f5b00e08f5b0036
:100ca00006003d006044b8006055b80004025400de
:100cb00085825c0006035d0087835d00a5ff070059
:100cc000e00f5600060032006022b8006033b80022
:100cd0000000520081805a0002015b0083815b00aa
:100ce0004f0678004f05be004f04be000080fa009a
:100cf000000006000000fa00889fbe008a9fbe0028
:100d00008c1f78000006eb00e00f5000e08f5800c9
:100d1000e00f5900e08f590007003d006044b80023
:100d20006055b8001c0020000000540081805c0069
:100d300002015d0083815d00e00f5200e08f5a00e8
:100d4000e00f5b00e08f5b0007003d006044b800ef
:100d50006055b8000c00a2000402540085825c00bb
:100d600006035d0087835d0051000700e00f560019
:100d7000060032006022b8006033b8000000520064
:100d800081805a0002015b0083815b004f0678007e
:100d90004f05be004f04be000080fa0000000600b0
:100da000889fbe008a9fbe0000827000040271000e
:100db00004827100260032000004be000200be0062
:100dc0006011b8006b092000950220000182cf005d
:100dd0000a0039000541b1000082cf000700390048
:100de0000541b1000982cf00040039000541b1007e
:100df0000882cf00010039000541b10005425200d0
:100e0000120032000a003b0082817100610164001f
:100e10008100d1000080d3008984d3000884d300ee
:100e20008b05e8000442e800f7ff3a0007003700ae
:100e30000804440089844c00000048008180480078
:100e40008b05e9000442e900f9ff3a004bfe070078
:100e50004f05be004f04be0000000600c70ade00ba
:100e6000f107b200f50fb20008003200e1cf4200f6
:100e7000020032000170a00024000500810f700004
:100e8000010032000408050044000500810f7000d5
:100e900002003a00140005008502e900000040004d
:100ea00081c04800fcff3b000170a0002400050049
:100eb000889fbe008a9fbe008c9fbe000404b800bd
:100ec0000506b8008904460060854e000606b80095
:100ed0000a054600e0854e000706b8008b0546006f
:100ee000040eb800890446000a854e00e0854d00d6
:100ef000050eb8000a0546008b854e00060eb800a8
:100f00008b0546000416b8000a0546008b854e0086
:100f10000516b8008b054600041eb8008b05460078
:100f20000800be000a01be004f06be004f05be000d
:100f30004f04be0000000600810378000000fa00a4
:100f400080017800070278000100370085017800f1
:100f5000110009000282d8008302e8000002780034
:100f6000e00f5200f9ff3a00844a780011000900ae
:100f70008283d800800278000142780085037800df
:100f8000e94f5200010034006742420001c3b30040
:100f900081514200e08f5200f4ff3a0003007800d4
:100fa0000080fa00000006000000fa00881f7800a8
:100fb00000047800e08f500005003d000800780034
:100fc000d4c2b3008100ea00045878000100370061
:100fd00008007800d8ff0700080078004f04780068
:100fe0000080fa00000006000c00fa00889fbe0096
:100ff000f4ff270000047800540798008004eb00f9
:10100000080f78001907980028079800240c200082
:101010006801570034079800ceb897000e0078009a
:10102000b70007001e027800094a78001e0014006d
:101030004f04be000080fa0000000600d4c6b300d2
:101040000800fa00889fbe000084fb008a9fbe0053
:10105000844f50002c003600a91d21004b062000b3
:10106000110009000b84d800720040004300dd002d
:1010700000804400810578006022b800060020004e
:1010800007fe2300aa0020005001be004000be0061
:10109000450907000002be000203be00110009005e
:1010a0008a85d800049fbe000697be0080057800a0
:1010b000e9854500c35ddd008b8544003e00be0030
:1010c0002e01be003b02be002b03be003609070006
:1010d0000002be000203be00110009000a84d8000d
:1010e000049fbe000697be00010478004344dd0063
:1010f000888444003e00be002e01be003902be00be
:101100002903be001d003700ea4f500013003600cf
:10111000aa002000a91d2100110009000a84d8009e
:1011200001057800690440004355dd004344dd00bb
:10113000088444008a8444006022b800060020002d
:1011400007fe23003800be002801be001609070074
:101150003902be002903be0008003700a41d21008b
:101160004344dd00080442006022b800060020006d
:1011700007fe23003800be002801be000a09070050
:101180004f05be004f04be000080fa0000000600bc
:10119000d4c6b3000800fa00889fbe008a9fbe0034
:1011a000e04f500022003d000040ea000004fb0038
:1011b000844f50000a00340044062000a90020009b
:1011c000110009000404d800aa1d21001100090023
:1011d0008900d800e9004000c308dd002000370086
:1011e000ea4f50000f003400a40020001100090055
:1011f0000404d800a41d2100690040004300dd0064
:1012000000004200430cdd00080242005001be0015
:101210004000be005403be004402be00e2080700c6
:10122000330037004344dd00a41d21002d003700aa
:101230000004fb00844f50001f00340044062000cf
:10124000a9002000110009000404d800aa122100fe
:10125000110009008900d800e9004000c308dd0042
:10126000810045008b0920008a8545003102be00bf
:101270002103be003b00be002b01be00ca080700d0
:101280000002be000203be00110009000904d800dc
:10129000049fbe000697be00010478004344dd00b1
:1012a000080545003e00be002e01be003a02be0009
:1012b0002a03be00d9ff3700ea4f50000700340070
:1012c000a4002000110009000404d800a412210089
:1012d000690040004300dd00c9ff37004344dd00e2
:1012e000a4122100080442003800be002801be00fc
:1012f0004f05be004f04be000080fa00000006004b
:101300005a00fa00889fbe00111798008a9fbe00fd
:10131000721798008c9fbe00000678006000b8002d
:101320006011b800201798003117980042179800f4
:10133000531798008000eb004127980042063700c1
:101340001e11900054c2b3000201e8001217980069
:10135000844f500006003a00820378008002eb00c0
:1013600000c3b30001c2b300b2c2b3001000370023
:101370003c0290000404b200040032001c02780019
:10138000004a7800040ee800050037000000fb006a
:101390008c00780037060700e10f40002a06320073
:1013a000ce2190008301e8004327980026063700ed
:1013b00007027800d3c2b30037437800834f53004d
:1013c0000900320005003c00814f53000800320044
:1013d000824f53000c003a0007003700804f530043
:1013e00009003a00060037000530a000f0ff370082
:1013f0000500a000eeff37000510a000ecff37004d
:101400000520a000eaff3700e283620001003200fd
:101410000500a100e8836200010032000520a10060
:101420008603fb000703b100e98f53000d003e0067
:101430000403780007002000ea3ab900b603fb0075
:101440000703b1001600fb00848343000003b100d2
:1014500006027800e90f5000f7ff360007279800d2
:101460000a0037008003eb0007279800a7c2b300eb
:10147000874f530005003a007e1090000402e800f8
:10148000c00078007017980001279800e6c2b300ea
:10149000944f13001b003a0005e0a0005527980068
:1014a000a5c2b300d4cf1200040032000001eb004b
:1014b00084027800820378000b003700fe11900050
:1014c0000402e800c302780073179800451f9800d3
:1014d00004037800c5c6b3005e2090000e003700fc
:1014e000ea3ab90084034300050278003503fb00a3
:1014f0000603b100e90f5300f9ff3600471f9800bb
:10150000f3ff370005c0a0000003eb00552798004b
:10151000461f9800eeff37008603780037427800b8
:1015200007037800854f52002e00320050279800a4
:1015300017179800c5c6b300854f520014003c0031
:10154000e8c25200854f52002400320009003c00de
:10155000ecc25200854f520033003200ebc2420011
:10156000854f5200b3003200e04f5200bb053200fd
:10157000d100370065c6b300854f5200200032000d
:10158000e3c24200854f5200cb003a0013003700ff
:1015900035c7b300854f52002a00320007003c00d7
:1015a000e4c25200854f52001a0032008542e80022
:1015b000854f5200c0003a001b00370055c7b300ea
:1015c000854f5200c0003200e3c24200854f5200f6
:1015d000b9003a00044f780017003700044f780034
:1015e000bd003700f003600004012000010032005c
:1015f000040028000002720004007800c6ff3700d3
:10160000de239000044f780007a0a0005727980021
:10161000b10037005e249000044f78000860a000fd
:1016200058279800ac0037005e209000044f7800e7
:101630000050a00050279800de2090000170a0000c
:10164000a40037007e119000044f78004202780019
:101650007217980004047800e00f520001003a006d
:10166000c82a2100080378000002eb0001003700bf
:101670000402e800840243008041eb0095cf110092
:10168000fbff3a00840478004e1a9000e00f5200ed
:1016900003003200890f52000100310084047800f9
:1016a0008006eb008e229000898f520001003600e8
:1016b000898652005e2390006803630056279800d5
:1016c00036003a00481f9800591f98006a1f98007a
:1016d0007b1f980004c2b300ce2490001000370096
:1016e000bc0290000504b200040032009c027800a5
:1016f000844a7800050ee80007003700442f980060
:101700008c007800000220005a0507004e2a900045
:10171000e10f4000010032008904e8008d06e90075
:10172000e08f5600eeff3a00492798008086eb00d4
:101730004e1c9000de1c90006e1d9000fe1d90005f
:10174000160037003c0290000404b2000900320089
:10175000080278001c037800b4427800054b78003a
:1017600004047800060ee800e0cf520008003a00ba
:101770000a003700080278008c0078003400fb0073
:10178000040478003b050700e10f4000030032002d
:10179000ce2090008100e8004127980009027800df
:1017a0008404e900e00f5200e6ff3a005e21900059
:1017b000e00f51002405320058279800692798004f
:1017c0007a2798000b2f980004c2b300ce24900013
:1017d00010003700bc0290000504b2000400320083
:1017e0009c027800844a7800050ee8000700370064
:1017f000442f98008c007800000220001d0507008f
:101800004e2a9000e10f4000010032008904e800f8
:101810008d06e900e08f5600eeff3a004927980058
:101820005e249000ee2490007e2590008e2d900086
:1018300005053700fe1090005e23900041027800fd
:10184000f00263007117980004007800cf80de007a
:101850000101780082017800001f9800111f980094
:10186000221f9800331f98004800de00480add0060
:1018700000007200004f7800e08f52000900320033
:10188000e04f500007003200e14f400005003200f9
:101890008e73900010479800274798002900200079
:1018a000030037000e7090001900200010479800c8
:1018b0000e04e80074ff3700044f78000e0478002f
:1018c0001900200070ff3700044f7800de209000e0
:1018d000010cb30051279800047020005e21900095
:1018e0000402610091023200040021000402610040
:1018f0000200320063002000431f9800de229000a7
:1019000070826200090032007e1290004401be0025
:101910004400be0074179800001f9800111f980023
:10192000221f9800331f98000a003700fe12900013
:101930004500be0075179800830607000002be0030
:101940000203be00041f9800151f9800261f980070
:10195000371f98006022b8006033b8000e1890005e
:101960009e1890002e199000be199000c80507001f
:10197000e00f50000c003d000e1890009e189000e3
:101980002e199000be19900003f0a200001f9800cd
:10199000111f9800221f9800331f9800de2090002e
:1019a0003100b300512798000002eb000e189000a0
:1019b0009e1890002e199000be19900024079800e0
:1019c0006022b8006033b80015060700e00f500031
:1019d00033003200640247000e1890009e189000f9
:1019e0002e199000be199000d20607002e0090001c
:1019f000a40020000000e900e300b9001100090084
:101a00000400d80020079800e00f500002003d00bd
:101a10000000e900200798002e0490000840ea002a
:101a2000dbfd07000e1a90009e1a90002e1b9000fe
:101a3000be1b9000dc0607000002be000203be00d1
:101a400024179800351798004617980057179800e4
:101a50006022b8000600200007ff23008c05070065
:101a6000e00f500002003d000804e9000b003700c1
:101a70006022b80006002000470224002e109000cb
:101a8000be1090004e119000de11900085050700f9
:101a9000e00f5000020035000804e8002807980015
:101aa000ce1a9000f88f52000f003c0005407800dd
:101ab00062fd07000002be000203be000e18900087
:101ac0009e1890002e199000be199000f304070094
:101ad0000002be000203be00041f9800151f9800fc
:101ae000261f9800371f98002e049000e90f54001d
:101af00015003c006022b8006033b8000e1890005a
:101b00009e1890002e199000be199000c405070081
:101b1000e00f5000320032000e1890009e18900026
:101b20002e199000be19900026060700e00f500005
:101b3000e08f5800e00f5900e08f590028003a006c
:101b4000e10f5400260034000400200005002e00a0
:101b5000b6e02200170124002e109000be10900065
:101b60004e119000de11900049050700e00f500073
:101b700002003d0073045400010037007204540059
:101b8000280798004e40900081fd07000002be002b
:101b90000203be000e1890009e1890002e199000af
:101ba000be19900024179800351798004617980022
:101bb0005717980040050700020607000205be00ff
:101bc0000004be006000b8006011b800001f98005b
:101bd000111f9800221f9800331f9800170037002c
:101be0000e1890009e1890002e199000be199000bb
:101bf000f40507000205be000004be00220607002f
:101c00000002be000203be000e1890009e18900055
:101c10002e199000be199000d80607000002be00e1
:101c20000203be00041f9800151f9800261f98008d
:101c3000371f98000002eb0024079800c12b2100f9
:101c400010c0b300080037003102be003103be00ef
:101c50000440e10005c8e10006d0e10007d8e1003a
:101c6000030039000040e800f44f5000f6ff3a004e
:101c70008e229000004f78002e0290004e1b9000a4
:101c8000048252000000fb000602520000005200d5
:101c900000279800e00f5300020032000000e90026
:101ca00000279800de239000638263000300320067
:101cb0000e2090000000e90000279800de20900030
:101cc000648260005100320062826000e182600044
:101cd000e00f5200170032003c0290000404b200f2
:101ce000080032001c037800b4c2b300e08f520039
:101cf0000100320004c2e800044b7800060ee80040
:101d000008003700b0022000e08f520001003200ce
:101d10000080e8008c007800d6030700e10f400047
:101d2000300032004e2190000201e8004227980066
:101d30002c003700e08f52002a0032003c02900055
:101d40000404b200050032009c02780004c2b30013
:101d5000844a7800050ee800050037008c00780002
:101d600000022000c3030700e10f40001d00320005
:101d7000ce2190008301e800432798001900370026
:101d80003c0090000004b200040032001c00780007
:101d90000d487800000ee8000d003700442f980031
:101da000352f9800162f9800272f98008c00780068
:101db00000032000af0307004e2a9000be2a9000c7
:101dc0001e2b9000ae2b9000e10f4000030032006c
:101dd0004e2490000804e800482798008904e90090
:101de000040037000802be000a03be008e249000e3
:101df0000dc3b300e08f5400e1ff3c0009279800b9
:101e00000605be000404be00800037005e2090007e
:101e10006802600023003a00190037003c0090007f
:101e20000004b200040032001c0078000d48780065
:101e3000000ee8000d003700442f9800352f980061
:101e4000162f9800272f98008c00780000022000a1
:101e5000880307004e2a9000be2a90001e2b900097
:101e6000ae2b9000e10f400003003200ce20900026
:101e70008100e800412798008904e9000400370048
:101e80000802be000a03be008e2490000dc2b300fb
:101e9000e08f5400e1ff3c00092798000605be00d2
:101ea0000404be005e21900062026100e102610054
:101eb000e00f5200170032003c0290000404b20010
:101ec000080032001c037800b4c2b300e08f520057
:101ed0000100320004c2e800044b7800060ee8005e
:101ee00008003700b0022000e08f520001003200ed
:101ef0000080e8008c0078005e030700e10f4000de
:101f000042003200ce2190008301e8004327980070
:101f10003e003700e08f52003c0032003c0290004f
:101f20000404b200050032009c02780004c2b30031
:101f3000844a7800050ee800050037008c00780020
:101f4000000220004b030700e10f40002f00320089
:101f50004e2290000402e800442798002b0037002e
:101f60003c0290008502fb000404b2001100320024
:101f7000462b2100c32add00850243009c06780021
:101f80005503be004502be000800be000a01be00a7
:101f9000e7fa0700a4002000050020006033b80025
:101fa000ecfa070007c3b300874e40000d0ee800af
:101fb00013003700402b2100c32add0085024000ba
:101fc0000800be000a01be005503be004502be0067
:101fd000d7fa0700a4002000050020006033b800f5
:101fe000dcfa07008c0078000403200000024200a5
:101ff000040078001f030700e10f400003003200d7
:10200000ce2090008100e800412798001e42780011
:102010008442e900054f7800e04f5200d0ff3a00bb
:10202000110037003c0290000404b20004003200aa
:102030001c027800084a7800040ee800050037000a
:102040008c007800000320000a030700e10f400025
:10205000010032008904e8002e0290000402e90029
:102060002407980002003700ce24900008c3b30074
:102070002e029000e00f5200eaff3c004927980032
:102080004e199000f20f51000300340024c1b30038
:10209000044f7800020037008e799000034f7800db
:1020a0004e1b90009e4278000502fb000402530084
:1020b000441f9800e0cf5200100032003c02900014
:1020c0000404b200050032001c027800e5c2b3002f
:1020d000054a7800040ee800050037008c007800ff
:1020e000e0022000e3020700e10f4000030032009d
:1020f000ce2390008703e800472798001e40780011
:1021000023fc07000002be000203be000e18900070
:102110009e1890002e199000be199000220507000d
:10212000a8040700340037003c0290008502fb0041
:102130000404b20011003200402b2100c32add004c
:10214000850240009c0678005503be004502be0093
:102150000800be000a01be0075fa0700a4002000b6
:10216000050020006033b8007afa070004c3b3000a
:10217000844e40000d0ee80013003700462b21006e
:10218000c32add00850243000800be000a01be002c
:102190005503be004502be0065fa0700a4002000fa
:1021a000050020006033b8006afa07008c00780050
:1021b000040320000002420004007800ad02070082
:1021c000e10f400003003200ce2390008703e800b7
:1021d00047279800402b21001e02fb004322dd0010
:1021e000040240000800be000a01be005403be0005
:1021f0004402be0057fa07001e4278000205be00e6
:102200000004be008442e900054f7800e04f520010
:10221000c5ff3a00190037003c0090000004b200ee
:10222000040032001c0078000d487800000ee80021
:102230000d003700442f9800352f9800162f980076
:10224000272f98008c0078000003200089020700e7
:102250004e2a9000be2a90001e2b9000ae2b9000bc
:10226000e10f400003003200ce2090008100e80022
:10227000412798008904e90004003700ce1c900033
:102280000dc3b3000203be000002be00e08f540085
:10229000e1ff3a000605be000404be005e21900086
:1022a00068026100680232008e219000e08f5100c8
:1022b000650234000802be000a03be000dc2b3006e
:1022c000830478003c0090000004b2000400320057
:1022d0001c0078000d487800000ee8000d00370063
:1022e000442f9800352f9800162f9800272f98001c
:1022f0008c007800000220005e0207004e2a900049
:10230000be2a90001e2b9000ae2b9000e10f4000e3
:10231000030032004e2490000804e800482798008b
:102320008904e900e7ff3a0045023700de22900009
:10233000050cb2002e003a005e209000e00f500025
:1023400005003d00fe1090004105be004104be00a6
:1023500071179800170037005e219000700261002d
:102360000e0032007e1390004602be00140f98004b
:10237000250f980076179800160290004fa2de00f5
:10238000340f9800440f98001e0c9000ae0c900083
:102390003e0d9000ce0d9000060037007e1090009c
:1023a0004004780070179800cfc4de00090578005b
:1023b0008a057800e00f5400e08f5c00e00f5d00bc
:1023c000e08f5d0027003d00de2090006022b80015
:1023d0006033b8003100b3000804520089845a0009
:1023e0000a055b008b855b00512798001d003700b4
:1023f0005e219000e00f510005003d00fe119000ad
:102400004305be004304be00731798001500370053
:102410005e239000f00263000c0032007e119000f9
:102420004200be00740798005007980061079800aa
:10243000040f9800721798005e049000ee0490005c
:102440007e0590008e0d9000060037007e129000f1
:102450004404780074179800090020000a00200046
:102460000b002000ce1a9000e08f520009003a00c5
:1024700016002000461f9800e00f5400e08f5c001b
:10248000e00f5d00e08f5d00020032008003eb0092
:10249000471f98005e20900004042000000cb2004a
:1024a000001f9800840f50002c00320003003c00f5
:1024b000e00f5000080032003c0037000408200004
:1024c0008e189000848f500010003200040c200001
:1024d000848f500035003a00c52b210014c0b30092
:1024e0003500be003501be000040e10001c8e1003a
:1024f00002d0e10003d8e1002b0039000442e800db
:10250000f44f5200f6ff3a002700370014c0b30022
:1025100000012000010020006011b8000040e1002f
:1025200001c8e10002d0e10003d8e1001e0039003b
:10253000450020000000d0008180d2000281d2003e
:102540008381d2008502e900faff3a000442e800e4
:10255000f04f5200f1ff3a001300370014c0b300ef
:1025600080002000010020006011b8000040e10060
:1025700001c8e10002d0e10003d8e1000a003900ff
:10258000360020000000d0008180d2000281d200fd
:102590008381d2000603e900faff3a000442e80012
:1025a000f54f5200f1ff3a00044f78001e02fb0085
:1025b000ce1b9000870f520002003d00074f7800ad
:1025c000040037004e189000840f500001003d00b9
:1025d000441f98008e209000e08f500005003200cc
:1025e0005e21900063026100020032008100e90078
:1025f0000127980004002400de219000048261007d
:10260000090032000e229000ce1a9000850f520071
:10261000030034000502520004279800020037002e
:102620000003eb00062798008003eb001e02fb006e
:10263000671798000e209000840f500002003400ad
:102640000402500064179800de209000648260004d
:1026500051003200e282600061826000e08f52002f
:1026600017003200bc0290000504b20008003200de
:102670001c037800b5c2b300e00f52000100320025
:1026800085c2e800054b7800060ee8000800370018
:10269000b0022000e00f5200010032000080e8008c
:1026a0008c00780073010700e10f40001600320033
:1026b0004e2190000201e8004227980012003700e6
:1026c000e00f5200100032003c0290000404b200ff
:1026d000050032001c02780005c2b300054a7800ec
:1026e000040ee800050037008c007800000220008e
:1026f00060010700e10f400003003200ce2190008e
:102700008301e800432798006e129000e00f52000a
:10271000750032000802be000a03be00ee149000ed
:102720000dc3b3003c0090000004b200040032006e
:102730001c0078000d487800000ee8000d003700fe
:10274000442f9800352f9800162f9800272f9800b7
:102750008c00780000032000460107004e2a9000fc
:10276000be2a90001e2b9000ae2b9000e10f40007f
:10277000030032004e2490000804e8004827980027
:102780008904e900e7ff3a00691798000605be00d2
:102790000404be00540037006e109000e00f50009b
:1027a00023003200de2090006882600020003a00a2
:1027b0000802be000a03be000dc2b3008004780008
:1027c0003c0090000004b200040032001c007800bd
:1027d0000d487800000ee8000d003700442f9800e7
:1027e000352f9800162f9800272f98008c0078001e
:1027f000000220001f0107004e2a9000be2a900010
:102800001e2b9000ae2b9000e10f40000300320021
:102810004e2190000201e800422798008904e90057
:10282000e7ff3a00691798000605be000404be00e1
:10283000de219000e282610061826100e08f52003f
:1028400017003200bc0290000504b20008003200fc
:102850001c037800b5c2b300e00f52000100320043
:1028600085c2e800054b7800060ee8000800370036
:10287000b0022000e00f5200010032000080e800aa
:102880008c007800fb000700e10f400016003200ca
:102890004e2290000402e8004427980012003700fe
:1028a000e00f5200100032003c0290000404b2001d
:1028b000050032001c02780005c2b300054a78000a
:1028c000040ee800050037008c00780000022000ac
:1028d000e8000700e10f400003003200ce22900024
:1028e0008502e800452798004e1b9000442b2100ec
:1028f0008602e900de239000c32add00f083630036
:102900005e209000848642000002b20047079800d3
:102910003007980008279800192798002a27980060
:102920003b2798009c003700ce1a90000e1b9000a9
:102930008502e90007042000451f9800870f530017
:102940007100320003003c00e00f53000800320029
:102950007e003700040820000e1c9000840f5400f5
:1029600053003200040c2000840f540077003a001a
:102970005e209000e00f50001e003d003d04be00b0
:102980002d05be000e2090009e2090002e2190006c
:10299000be2190000802be000a03be0064f80700d2
:1029a0000802be000a03be00004f78000000fb00d2
:1029b000cf80de000101780082017800cdf80700a9
:1029c0000e2290009e2290002e239000be239000a5
:1029d0000002520081825a0002035b0083835b0085
:1029e0000427980015279800262798003727980075
:1029f0002c003700ce029000e08f52002100320000
:102a00000e2290009e2290003d04be002d05be00c7
:102a10000400be000801be00442f9800352f980026
:102a200094f707000801be00004f78000004eb0097
:102a30000000fb00cf80de00520307004e2a90000a
:102a4000be2a9000081798000003520081835a00a4
:102a5000560f9800670f98008003eb00770f9800df
:102a60005e089000ee0890007e0990008e119000a4
:102a700000279800112798002227980033279800f4
:102a8000080037001d0278000e2190001100090097
:102a90000481d800a4002000110009000480d8009f
:102aa000014f780003c3b3001ecf41002700370059
:102ab000b4292100be029000e08f520001003200d4
:102ac000a42821004e1b90000e2090009e20900014
:102ad0002e219000be219000c232dd008502e90067
:102ae000050033008301d1000281d3008180d3002f
:102af0000080d300f9ff37006f0060000000420043
:102b0000104f780011003700ce1b90000e2090006f
:102b10009e2090002e219000be219000e33ab90043
:102b2000040478000804e900050033008301d100a3
:102b30000281d3008180d3000080d300f9ff3700e9
:102b40006742600000c3b300004f42003c029000a7
:102b50000404b200070032009c0278001e42780094
:102b6000844a7800050ee800e04f520006003a0063
:102b7000080037001e00fb008c0078003d000700b5
:102b8000e10f400003003200ce2090008100e800f9
:102b900041279800e88656004e199000e00f51003a
:102ba00061ff3a00de2190000e2490009e249000e8
:102bb0002e259000be259000688261002200320020
:102bc0006e129000e00f52001f0034000802be0099
:102bd0000a03be00ee1490000dc2b3003c0090004a
:102be0000004b200040032001c0078000d48780098
:102bf000000ee8000d003700442f9800352f980094
:102c0000162f9800272f98008c00780000022000d3
:102c1000180007004e2a9000be2a90001e2b90003c
:102c2000ae2b9000e10f4000030032004e249000d4
:102c30000804e800482798008904e900e7ff3a0003
:102c40000605be000404be009e10900011407800ee
:102c5000004f7800e04f5000b9f93a004f06be002f
:102c60004e2090004f05be004f04be000080fa00c9
:102c7000000006000000fa00889fbe0001047800f2
:102c80008084eb0038029000e20262003b003200d8
:102c900004037800980290000620b20002003a0077
:102ca000e08f520035003a000490a00080047800c4
:102cb00034049800f90fb200e08f520002003a008d
:102cc000a8029000050c7800ea8f540005003a0035
:102cd0000408b20003003a0088007800d000200009
:102ce000e4ff070018029000d8029000850f520000
:102cf0000b0032000402e80015c0b3001404980071
:102d000018027800094a7800040ce800a437210072
:102d1000054a7800ea8f540018003a000500370091
:102d200009407800880078001800070080047800c7
:102d300012003700380290000410b2000f00320079
:102d400018019000a80090004800900017f60700b6
:102d500018029000840f50000400320038029000e6
:102d60000403b300340498008084eb000002eb00fd
:102d70001404980028029000040c780009007800e0
:102d80004f04be000080fa00000006000200fa00b6
:102d9000889fbe0001047800004f78003802900040
:102da000840278000504b200020032000000fb003b
:102db00033003700e202620005003a000403b3006a
:102dc00015049800340498000080eb002c003700b4
:102dd000d8049000e08f540006003a001200200052
:102de0008e00780048009000f0f507001904980064
:102df00022003700a8029000e08f520008003a003d
:102e0000d53721000430a00025049800050c780077
:102e100034049800250020005504980015049800fb
:102e200018019000a800900048009000dff507000e
:102e3000280290008082eb00150498001e4a78005a
:102e4000040ce800a4c0b3009e4f12000b003a002f
:102e5000380290000410b2000800320018019000ff
:102e6000a800900048009000d0f507000002eb0099
:102e70001404980028029000040c78001e00fb0047
:102e80004f04be000080fa00000006000000fa00b7
:102e900000c0da000080fa00000006002800fa00f6
:102ea000889fbe008a9fbe008c9fbe0007067800e8
:102eb000878669000c003b000304780087047800d3
:102ec00008f0a10009f0a100840f5000858f580080
:102ed000860f5900890f5c00030033000cf0a2003c
:102ee00001003a000cf0a100fe0007006400e100c0
:102ef0005f003200780147006408e10061003200a1
:102f00006c014700748557003200be001201be00fc
:102f10003a04be001a05be001e039000be0a9000cf
:102f20008503530006003d000004fd008104fd0000
:102f30000205fd008305fd008703ea000503780014
:102f40000df8a3000400320060041400e0841c00ab
:102f500060051d00e0851d006022b8007d03200093
:102f60000d38e1008006eb000b0039004433dd0032
:102f7000f300b200830173003900370084827200cd
:102f80000d027800e10664008b85d1000a85d3002c
:102f90008984d3000884d3008703e900f7ff3b004e
:102fa00008004000898048000a0149008b814900df
:102fb00004003b0060001000e08018006001190070
:102fc000e08119000358a300090032008d827200cd
:102fd00084827200610260008301d1000281d3000b
:102fe0008180d3000080d3000603e8001b00370077
:102ff0000348a30017003a000600e0001700340061
:103000000603e9000d00a30000004800818048008d
:1030100002014900838149000348a3000f003a00e0
:103020000600e000090034000603e900000040004b
:1030300081804800020149008381490001003a0073
:103040000003eb000348a300f5ff32006022b80044
:1030500002003700848272006182660075000700fa
:1030600003f0a1000cf0a70003f0a000b1003700ae
:10307000640147006408e10002003a000df8a30073
:10308000a9003a003200be001201be00a9003700bc
:103090008f1fd100c10107008f87e9000000e00009
:1030a00000000600809feb00bc0107008f87e9004d
:1030b0000000e000000006002800fa00889fbe0023
:1030c0008a9fbe008c9fbe0003866b0085000700b0
:1030d0006400e100440032006408e1004a0032006c
:1030e0006100e100460032006108e1004900320061
:1030f000ec0647006000b8003d02be003d03be0084
:10310000f48657006011b8003d04be003d05be00c6
:103110007d0320000b0037000000a0008d06e900b1
:10312000130032000402420085824a0006034b006d
:1031300087834b0000004000818048000201490065
:10314000838149000802520089825a000a035b0009
:103150008b835b00f0ff3b000802420089824a003b
:103160000a034b008b834b008d06e900edff3a000c
:103170008482720086827200f707b2008782720032
:1031800001003200150020001e0490003e0b90004c
:1031900006035400e63fb0000368a30007003200b6
:1031a0000000a7000500a0008301d1000281d30028
:1031b0008180d3000080d3000603e8008301d100a2
:1031c0000281d3008180d3000080d3000002eb0095
:1031d0000482d2001700070003f0a1000cf0a70042
:1031e00003f0a00053003700640247006408e100c8
:1031f0004d0032003400be003401be00f6ff37003f
:103200006108e100480032006011b8006000b800b9
:10321000f1ff370003ff270002002000fbff37000b
:10322000801feb005d0107008f87e9000000e000d0
:10323000000006001800200057002000080453007a
:103240000d003d000600200097fc2f000740e10024
:103250001e00340084827200610260008301d1008c
:103260000281d3008180d3000080d3000804e800ed
:10327000f8ff3a0047002000610460000504740074
:10328000040464000d00320061004000e08048004a
:1032900060014900e081490003b8a5000700320041
:1032a0000603e8006538e10004003a008301d1001c
:1032b0000281d3008180d3000080d300f87f2000fa
:1032c0000830e10003003500080378006000b80012
:1032d0006011b8004433dd00f300b20083017300d5
:1032e00000000600680447000294be000094be007f
:1032f000fc0447008694be008494be000900780058
:103300006f010700080078006d0107009900780040
:10331000814f70000b003b000800be004801070011
:103320004f00b10003003700f3ff2700f2ff2f002a
:103330006110b9004f06be004f05be004f04be002d
:103340000080fa000000060081037800c3f6070041
:103350000001be006000b8000478a30013003a002a
:103360006220e10015003e000d0039008301d1000c
:103370000281d3008180d3008301d1000281d30078
:103380008180d3008301d1000281d3008180d300ea
:103390000538b000c42add00f300b200838172005a
:1033a00007f0a70003f0a00000000600f3ff2700cd
:1033b000f2ff2f006110b900fbff370003ff270069
:1033c000f7ff37001400fa00889fbe008a9fbe00f6
:1033d0008c9fbe000004be000205be0068004700ce
:1033e0000a90be000890be00350107000070a700db
:1033f0000bf0a1000bf8a30020003a009e099000fa
:103400000e099000fe0090006e0090009e02900059
:103410003443200084825200c6ff32000a003c0080
:10342000b4fc2f000428e100140034008301d10013
:103430000281d3008180d3000080d3008502e800a0
:10344000faff3a00bbff3700b40020000428e10077
:1034500007003c0000004000818048000201490054
:10346000838149008502e900faff3a00b1ff370085
:103470000300280002002000010037006011b8009e
:103480006000b800abff3700889fbe00008270006c
:1034900004027100048271002400320036432000cf
:1034a000c50020008383cf000a0039000541b10028
:1034b0008283cf00070039000541b1008183cf002e
:1034c000040039000541b1008083cf0001003900bc
:1034d0000541b10085c353006022b80012003200dc
:1034e0000a003b0084827200610260008301d10007
:1034f0000281d3008180d3000080d3000603e8005e
:103500008743e800f7ff3a0007003700000040005b
:103510008180480002014900838149000603e900d7
:103520008743e900f9ff3a0042ff07004f04be005d
:10353000000006001400fa00889fbe008a9fbe00ab
:103540008c9fbe00040678000004be000205be0089
:10355000680047000a90be000890be00d80007002f
:103560006200e1000800be000a01be000400200065
:103570000b003a001e029000e43fb1006e00900084
:10358000fe0090000e0990009e099000f300b2002a
:1035900005fe2300858171000bf0a70003f0a00059
:1035a000040e780063ff37002800fa00889fbe00f1
:1035b0008a9fbe008c9fbe0003866b0049ff0700f8
:1035c0000028a30064003a000128a30067003a0025
:1035d0000008a30062003a000108a30065003a0059
:1035e0001e009000be08900081064000ed3fb10033
:1035f000f4805700ee019000111ab8008e09900077
:10360000311bb8009e099000311cb800511db80054
:10361000f485570046000700fe0190003a000700bd
:103620008b85e8003e0007008e09900040000700ef
:10363000ee019000340007008b85e8003800070099
:103640008e099000400007009e0990001b18b800ea
:10365000890440000a854800fe01900034000700fc
:103660008b85e80038000700ee019000300007006d
:103670008e0990001b18b800890440000a85480094
:103680000a98a30008003a000402420085824a001a
:1036900006034b0087834b0008044c0089844c00d0
:1036a0000a054d008d06e9008482720085027300d0
:1036b0004c3add0085027200010032001500200046
:1036c000443ade001400b2004538de00cb45dd0090
:1036d0000b007000c540de00cb4ddd008b8070001c
:1036e0004549de00cb55dd000b017100c551de0000
:1036f0000d037800cffe070003f0a1000cf0a70037
:1037000003f0a0000bff37001b18b8008502400033
:1037100006834800e0834b0060044c00070037003c
:103720001b18b8000603400087834800faff3700e3
:103730001b18b8008703400008844800e0844c0050
:1037400060054d00000006001b18b800080440008a
:1037500089844800faff37000108a300f2fe3a000e
:103760005800be005801be00e3ff37000008a30068
:10377000edfe3a0009047800f9ff370007f0a200d7
:10378000c6fd3700020ab900001bb9000200b800ec
:10379000810042008100430000000600889fbe00b7
:1037a0008a9fbe008c9fbe000404be000605be00ba
:1037b000809fbe00829fbe002f0007000406780095
:1037c0000800be000a01be002b0007008406780036
:1037d0004f03be004f02be008d4f76007fb09700b2
:1037e00013003300f0ff2f008b8f6b0006003b00af
:1037f0000d0666000c00a7000a00370007f0a600bf
:10380000100020000a003700880f5200898f5a00ec
:103810008a0f5b008b8f5b000300390010002000d3
:1038200001003e000000200007f0a7000000ea00b1
:103830004f06be004f05be004f04be00000006004c
:10384000e48240001078a3000700320064024000c8
:103850001178a3003400be001401be000400320041
:103860000330a700000006003500be001501be00b1
:103870000330a0000000060005ff2700058261005c
:10388000070032000428e100010032002400050096
:103890000600070001003a00440005000408050086
:1038a00002000700f9ff3a00140005006f82610072
:1038b000810270008502710085027200000006001e
:1038c000800078005002be005003be004439de0084
:1038d000f700b200f37f200003016100090032000d
:1038e0000218e10016003a0085017200830173009e
:1038f000838173000008200015003a00400020007a
:103900001300370085017200830173008381730007
:1039100005003a0004a8be0006a8be001000200062
:103920000b0037000201e9000402420085824a00d0
:1039300006034b0087834b000748a300f9ff3200c2
:103940000740a00004a8be0006a8be00200020007a
:0c39500080009800920098000000060023
:020000040000fa
:10395c00536500006c3d000025640000202500002c
:10396c0073200000202000002020000020200000f8
:10397c0020200000004900006e69000074690000fe
:10398c00616c000020250000372e0000336600001b
:10399c00202000002020000020200000202000001b
:1039ac00202000002020000020200000200000002b
:1039bc004465000066610000756c00007420000016
:1039cc00253700002e330000662000002020000068
:1039dc0020200000202000002020000020200000db
:1039ec0020200000202000002020000020200000cb
:1039fc0000410000626f000075740000207400002c
:103a0c006f200000646f00002020000020200000c8
:103a1c0020000000446f0000696e00006720000069
:103a2c00202000002020000020200000202000008a
:103a3c0020000000253700002e3300006620000017
:103a4c004d490000505300002020000020200000b1
:103a5c00202000002020000000200000202000007a
:083a6c00202000000000000012
:020000040000fa
:103a740000100000fa000000820000004a002a0042
:103a8400003400003f0024000031340030204d0099
:103a9400487a2000373020004d4950005320000060
:103aa4000000000000000000000000000000000012
:103ab4000000000020383100204d48007a203400f6
:103ac40030204d0049505300200000000000000049
:103ad40000000000000000000000000000002000c2
:103ae400393920004d487a0020353000204d4900f6
:103af40050532000000000000000000000000000ff
:103b040000000000000000000031320030204d00b1
:103b1400487a2000363020004d49500053200000e0
:103b24000000000000000000000000000000000091
:103b34000000000020373000204d48007a20330078
:103b440035204d00495053002000000000000000c3
:103b5400000000000000000000000000000046001b
:103b640052430000000000000046520043504c0045
:103b74004c000000505249000000000000005000ba
:103b8400524950004c4c0000004246005243000091
:103b9400000000004c5052004300000000004600aa
:103ba40052434400495631003646520043444900ca
:103bb400564e000002000000000400000000000057
:103bc400000000000800000000000000fa100000df
:103bd40030000000800000008a120000ca000000cb
:103be400820000003031320033343500363738007b
:103bf400394142004344450046003000313233002d
:103c04003435360037383900616263006465660014
:103c140000286e00756c6c00290000000100000093
:103c24000000000000000a00000000000000000086
:103c3400006400000000000000000000e803000031
:103c44000000000000001000270000000000000039
:103c540000a08600010000000000000040420f00a8
:103c640000000000000080009698000000000000a2
:103c74000000e100f50500000000000000ca9a0001
:103c84003b00000000000000e40b540002000000b0
:103c94000000e80076481700000000000010a500ae
:103ca400d4e8000000000000a0724e0018090000d3
:103cb400000040007a10f3005a0000000080c600a3
:103cc400a47e8d000300000000c16f00f286230073
:103cd400000000008a5d7800456301000000640074
:103ce400a7b3b600e00d000000e889000423c70074
:103cf4008a0000002a110000600100008200000018
:103d04000000000000000000f03f00000000000080
:103d140000002400400000000000000000594000a2
:103d240000000000000040008f4000000000000080
:103d34000088c30040000000000000006af8400052
:103d440000000000008084002e41000000000000fc
:103d5400d01263004100000000008400d7974100a6
:103d6400000000000065cd00cd41000000002000ef
:103d74005fa002004200000000801d00af15440057
:103d84000000000040593e002946000000000000e9
:103d94000000f0007f0000000000000000f07f0041
:103da4000000000000000000f07f000000000000a0
:103db4000000f0007f0000000000000000f07f0021
:103dc4000000000000000000f07f00000000000080
:103dd4000000f0007f0000000000000000f07f0001
:103de4000000000000000000f07f00000000000060
:103df4000000f0003f00000000a0990099b93f00c6
:103e04000000000040e17a00843f00000000e00070
:103e14004d6250003f00000000e0e200361a3f000f
:103e24000000000080b5f800e43e00000000a0009f
:103e3400f7c6b0003e00000000a0f200d77a3e00b2
:103e440000000000e08e7900453e00000000e00024
:103e54000b2e11003e00000000e0df007cdb3d0083
:103e64000000000000a19c00c73b0000000000000f
:103e74004c48b40039000000000020006ca1370059
:103e8400000000000000000000000000000000002e
:103e9400000000000000000000000000000000001e
:103ea400000000000000000000000000000000000e
:103eb40000000000000000000000000000000000fe
:103ec40000000000000000000000000000000000ee
:103ed4000000000000000000541300002600000051
:103ee400820000007b130000007b13000900000027
:103ef400000200007d130000007d13000e0201008b
:103f040000000000000000000000000006020200a3
:103f140000000000541300007a13000006000000a3
:103f240080000000801300000200000082000000f6
:083f3400010000000000000084
:020000040000fa
:103f3c001600fa00243a8000044278007f426200a6
:103f4c000482fb00040f7800243a80004622de0035
:103f5c00634262000482fb0014079800343a80002c
:103f6c00240798002e0290000482e800050020002f
:103f7c0034079800450798001e82e80005002000d1
:103f8c0054079800650798001e029000c222dd00bd
:103f9c00a40e2100048242001403be007607980090
:103fac00070f9800ce029000a4cc210084abb9007e
:103fbc003e029000e022b90004034300be029000d0
:103fcc00a4cc2100042ab800050343008602780023
:103fdc005e019000ee0190000400be0022f207008a
:103fec000002be007e0190008e0990000400be000d
:103ffc001df207000002be008502d1000482d3002e
:10400c00140f9800250f98001e0a9000ae0a90001d
:10401c000400be000080fa00000006000000fa0058
:10402c001029200019010700c1ff07000002be0083
:10403c000489880015898800143a80004c22de001f
:10404c00674262000482fb0044898800243a8000a5
:10405c000480a1000490a10004a0a100243a8800cf
:10406c00253a800004fe2f0004826200243a880066
:10407c00a4042000343a8800243a80000460a10093
:10408c000470a100243a8800a9ff07000002be00ba
:10409c00248988003589880014cea90018cea80080
:1040ac00db00070018cea90010c0b30043010700c5
:1040bc0020c0b30041010700a50a210044898000fb
:1040cc004322dd008482420044898000851f7800f1
:1040dc00841f7800e4ca2900841f7800a00f2100f7
:1040ec00bef30700e6875700a00f21001701070059
:1040fc00007d2000e50007000002eb00d48888005a
:10410c000700370080c1b3002c01070040062000d7
:10411c00de000700d48880000402e800d488880000
:10412c00d4888000ef0f5200f6ff340000c8b300b3
:10413c002201070004898000158980000400be005c
:10414c0089f107000002be0002002000a3472400f2
:10415c000400be0042f107000002be00849fbe00b6
:10416c0014cc2900841f7800a00f21009bf30700ba
:10417c00e6875700a00f2100f400070000ccb30025
:10418c000e01070024898000358980000400be00e0
:10419c0075f107000002be0002002000a3472400b6
:1041ac000400be002ef107000002be00849fbe007a
:1041bc00e4cd2900841f7800a00f210087f30700ad
:1041cc00e6875700a00f2100e00007000002eb007b
:1041dc00d488880007003700c0c1b300f70007007f
:1041ec0040062000a9000700d48880000402e800e3
:1041fc00d4888800d4888000ef0f5200f6ff34007a
:10420c0080382100a10007000002eb00d488880050
:10421c005a003700a4042000343a880010c0b300c0
:10422c00e600070020c0b300e400070018cea90088
:10423c00f0cf2900c500070000ccb300df00070059
:10424c00a5002100d48880004522dd0004824200b4
:10425c0004007800bd00070000c8b300d7000700b9
:10426c00007d20008900070000d12900b70007005d
:10427c00d4888000840242000400210004824200a1
:10428c0014027800343a880000ccb300cb0007004d
:10429c0027ff07000002be000400be0032f1070039
:1042ac000002be0002002000a34724000400be0050
:1042bc00ebf007000002be00849fbe0004d2290070
:1042cc00841f7800a00f210044f30700e6875700f5
:1042dc00a00f21009d00070064002000f4888800d6
:1042ec000002eb00e48888001d003700d4888000b1
:1042fc00a200200084007800a00f210027f3070003
:10430c00a0c8b300ad000700a00f21008f0007006c
:10431c0030d329008d000700e4888000a200200023
:10432c0084007800a00f21001cf30700d0c8b30054
:10433c00a2000700a00f21008400070018cea800df
:10434c00401f20005100070018cea900401f20007c
:10435c004e000700e48880000402e800e48888002e
:10436c00e5888000f4888000848f5200dfff3500e0
:10437c00d48880000402e800d4888800d4888000a7
:10438c00e40f5200a3ff34009fff37000600fa0031
:10439c00404798004e4290000402fb00040f780046
:1043ac001e027800c822dd0004002f000482620087
:1043bc0014079800c5708000f4ff2000048262008e
:1043cc00c4708800c57080001e0290000502720047
:1043dc00c4708800550007001e0278004c22dd00d6
:1043ec0014079800c5708000f4ff2000048262005e
:1043fc00c4708800c57080001e0290000502720017
:10440c00c4708800490007000080fa000000060014
:10441c000000fa00c5708000f4ff200004826200e6
:10442c00c4708800194ea900196ea900a5708000ef
:10443c00f4ff200004826200a4708800154ea900cd
:10444c00156ea900f00020001000070030c3b30067
:10445c005a000700500020000c00070020c3b300d6
:10446c0056000700500020000800070080c2b3006f
:10447c0052000700c0c0b3005000070060c0b3007a
:10448c004e0007000080fa00000006000200fa004f
:10449c00000f78001e027800040078000100200054
:1044ac00020020000300200004d82100c542200097
:1044bc006033b8000cf207000203be000002be001d
:1044cc000400be000601be00843e20000500200052
:1044dc006033b80093f107000203be000002be0077
:1044ec000402be000400be00260007000080fa0093
:1044fc00000006000400fa000402200014079800d3
:10450c000002eb00040f78000200370000000000ee
:10451c001e0fe8001e0290009e027800848f52004d
:10452c00faff35000080fa00000006000000fa00d7
:10453c00f0ff0700196ea800eeff0700196ea90026
:10454c00ecff07000080fa00000006000200fa00f1
:10455c00000f7800050037001e0278001442780026
:10456c0004407800220007001e0fe8001e027800ad
:10457c0014427800e04f5200f7ff3a000080fa0036
:04458c000000060025
:020000040000fa
:10459000f03fb1000180b10006003500ee030900d4
:1045a00000000000403fb1000180b100fbff3d0072
:1045b0001000b000203fb00002003500008009006c
:0845c0000000000000000600ed
:020000040000fa
:1045c8000200fa00004f780012000700194ea900f7
:1045d80010002000aeff07001e4078006cff0700a7
:1045e80010002000aaff0700194ea8000080fa005a
:1045f800000006000200fa00004f780005000700de
:10460800194ea8001e40780061ff07000080fa00dc
:10461800000006000000fa00100020009cff0700c0
:084628000080fa00000006000a
:020000040000fa
:020000040005f5
:04573000f9ffff007e
:020000040000fa
:020000040005f5
:045740009fffff00c8
:020000040000fa
:020000040005f5
:04575000fdffff005a
:020000040000fa
:020000040005f5
:04577800feffff0031
:00000001FF
